:020000040800F2
:1000000000000824951600088D14000893140008B9
:10001000991400089F140008A514000800000000AF
:100020000000000000000000000000005176000801
:10003000AB14000800000000A17800081D6900084A
:10004000E5160008E5160008E5160008E5160008A4
:10005000E5160008E5160008E5160008E516000894
:10006000E5160008E5160008E5160008E516000884
:10007000E5160008E5160008E5160008E516000874
:10008000E5160008E5160008E5160008E516000864
:10009000E5160008E5160008E5160008E516000854
:1000A000E5160008E5160008E5160008E516000844
:1000B000E5160008E5160008E5160008E516000834
:1000C000E5160008E5160008E5160008E516000824
:1000D000E5160008E5160008E5160008E516000814
:1000E000E5160008E516000800000000E516000807
:1000F000E5160008E5160008E5160008E5160008F4
:10010000E5160008E5160008E5160008E5160008E3
:10011000E5160008E5160008B9140008E516000801
:10012000E5160008E5160008E5160008E5160008C3
:10013000E5160008E5160008E5160008E5160008B3
:10014000E5160008E51600080000000000000000A9
:10015000E5160008E5160008E5160008E516000893
:10016000E5160008E5160008E5160008E516000883
:10017000E5160008E5160008E51600080000000076
:10018000E5160008E5160008E5160008E516000863
:10019000E5160008E5160008E5160008E516000853
:1001A000CD140008E5160008E1140008E516000863
:1001B000F5140008E5160008E5160008E516000825
:1001C000E5160008E5160008E5160008E516000823
:1001D000E5160008E5160008E5160008E516000813
:1001E000E5160008E5160008E5160008E516000803
:1001F000E5160008E5160008E5160008E5160008F3
:10020000E5160008E5160008E5160008E5160008E2
:10021000E5160008E5160008E5160008E5160008D2
:10022000E5160008E5160008E516000800000000C5
:10023000E5160008E5160008E5160008E5160008B2
:10024000E5160008E5160008E5160008E5160008A2
:10025000E5160008E5160008E5160008E516000892
:10026000E5160008E5160008E5160008E516000882
:10027000E5160008E5160008E5160008E516000872
:10028000E5160008E5160008E51600080000000065
:08029000E5160008E516000860
:1002A00010B5054C237833B9044B13B10448AFF3B0
:1002B00000800123237010BD2C01002400000000E9
:1002C0002444020808B5034B1BB103490348AFF3AC
:1002D000008008BD00000000300100242444020812
:1002E00001F0FF01102A2BDB10F0070F08D010F8E7
:1002F000013B013A8B422DD010F0070F42B3F6D1EB
:10030000F0B441EA012141EA014122F007047FF003
:1003100000070023F0E80256083C85EA010586EA5A
:10032000010685FA47F5A3FA87F586FA47F6A5FA96
:1003300087F68EB9EED1F0BC01F0FF0102F00702A2
:1003400032B110F8013B013A83EA010313B1F8D14D
:100350000020704701387047002D06BF354603382E
:10036000073815F0010F07D1013015F4807F02BF67
:10037000013015F4C03F0130F0BC0138704700BFB8
:1003800080B586B000AF00F0AFFB644B5B6903F44F
:100390000033002B1BD1BFF34F8F00BFBFF36F8F14
:1003A00000BF5E4B0022C3F85022BFF34F8F00BF47
:1003B000BFF36F8F00BF594B5B69584A43F400335A
:1003C0005361BFF34F8F00BFBFF36F8F00E000BFDB
:1003D000524B5B6903F48033002B38D14F4B002222
:1003E000C3F88420BFF34F8F00BF4C4BD3F880304D
:1003F0003B613B695B0BC3F30E03FB603B69DB08AE
:10040000C3F30903BB60FB685A0143F6E073134072
:10041000BA68920741491343C1F86032BB685A1E5B
:10042000BA60002BEFD1FB685A1EFA60002BE5D1B1
:10043000BFF34F8F00BF394B5B69384A43F48033B9
:100440005361BFF34F8F00BFBFF36F8F00E000BF5A
:100450004FF6FF737B6100BF314B1B6803F4004311
:10046000002B04D07B695A1E7A61002BF4DC7B6977
:10047000002B01DA00F082FB0CF060FA00F05EF86D
:10048000274BD3F8E030264A43F00073C2F8E0303F
:10049000234BD3F8E03003F000737B607B680020CF
:1004A0000DF08EF9002100200DF0A4F94FF6FF7336
:1004B0007B6100BF1A4B1B6803F40043002B04D17F
:1004C0007B695A1E7A61002BF4DC7B69002B01DA10
:1004D00000F054FB00F008FA00F082F900F0AEF9E9
:1004E00000F0FAF800F0B8F800F0D8F801F0FBF8E6
:1004F00006F02EFA0B4A00210B4806F073FA034669
:100500000A4A13600A4A00210A4806F06BFA0346B9
:10051000094A136006F040FAFEE700BF00ED00E074
:1005200000440258BC500208D90A0008FC0200240A
:10053000E0500208F31600080003002480B59CB0C8
:1005400000AF07F124034C220021184622F046FF99
:100550003B1D20220021184622F040FF04200EF00F
:10056000B3FC00233B60394BDB6A384A23F00103BC
:10057000D362364BDB6A03F001033B60344B9B696B
:10058000334A43F440439361314B9B6903F4404346
:100590003B603B6800BF2E4B9B6903F40053B3F5EF
:1005A000005FF8D12B4B9B6A23F00303294A43F0E9
:1005B0000203936203237B624FF48033BB62012307
:1005C0003B6340237B630223BB640223FB6405235C
:1005D0003B65A0237B650223BB650423FB650223E7
:1005E0003B6608237B660023BB660023FB6607F19E
:1005F000240318460FF0A4FB0346002B01D000F0A3
:10060000BDFA3F237B600323BB600023FB6008230C
:100610003B6140237B614023BB614FF48063FB61FE
:1006200040233B623B1D022118460FF0B7FF0346F3
:10063000002B01D000F0A2FA4FF48022002100200C
:1006400010F062F900BF7037BD4680BD000400584D
:10065000004802580044025880B500AF0D4B0E4AC6
:100660001A600C4B00221A710A4B00225A71094B76
:1006700000225A61074B00229A61064B01221A623E
:1006800004480CF051FB0346002B01D000F076FA31
:1006900000BF80BD48010024004C025880B500AF67
:1006A0000B4B0C4A1A600A4B4FF440325A60084B0D
:1006B00002229A60064B0022DA6005480CF01EFC0C
:1006C0000346002B01D000F059FA00BF80BD00BFE7
:1006D0006C0100240010005280B58EB000AF00F015
:1006E00053FA3B1D34220021184622F077FE3A4B84
:1006F0003A4A1A60384B00225A60374B00229A60FF
:10070000354B0022DA60344B00221A61324B28222A
:100710005A61314B09229A612F4B3522DA612E4BF7
:100720000B221A622C4B40F215225A622A4B40F2DD
:100730001B129A62284B40F23522DA62264B40F2B5
:100740001D121A63244B002283F83420224B00220E
:1007500083F83520204B002283F836201E480DF008
:10076000B7FE0346002B01D000F008FA00237B609F
:100770004FF4F073BB600023FB604FF488733B6160
:1007800002237B61FF23BB610023FB614FF4806385
:100790003B6205237B624FF05043BB624FF4F07322
:1007A000FB624FF488733B63002387F834300023E7
:1007B00087F83530002387F836303B1D0022194674
:1007C00005480EF00DF80346002B01D000F0D6F9D5
:1007D00000BF3837BD4680BDD40100240010005052
:1007E00080B500AF124B134A1A60114B01225A60B8
:1007F0000F4B01229A600E4B1022DA600C4B1A222A
:100800001A610B4B4FF400725A61094B00229A6136
:10081000074B40221A6206480EF0B0FB0346002B3D
:1008200001D000F0ABF9044800F022FA00BF80BD0F
:100830007C020024005000527D0B000880B588B077
:1008400000AF3B1D00221A605A609A60DA601A619C
:100850005A619A61214B224A1A60204B01225A6048
:100860001E4B00229A601D4B0422DA601B4B1022A3
:100870001A611A4B40225A61184B4FF480729A61E8
:10088000164B0022DA61154B4FF400621A62134BCB
:100890004FF480525A62114B00229A6202237B600D
:1008A0000623BB600423FB6006233B6102237B61BC
:1008B0000223BB610223FB613B1D1946074811F06F
:1008C0004FFB0346002B01D000F058F9054800F01B
:1008D000F0F900BF2037BD4680BD00BFC80200242C
:1008E000404100527D0B000880B590B000AF07F189
:1008F0002C0300221A605A609A60DA601A61724B07
:10090000D3F8E030704A43F48063C2F8E0306E4BB5
:10091000D3F8E03003F48063BB62BB6A6A4BD3F860
:10092000E030694A43F04003C2F8E030664BD3F848
:10093000E03003F040037B627B6A634BD3F8E03026
:10094000614A43F48073C2F8E0305F4BD3F8E03083
:1009500003F480733B623B6A5B4BD3F8E0305A4A46
:1009600043F01003C2F8E030574BD3F8E03003F007
:100970001003FB61FB69544BD3F8E030524A43F05B
:100980000203C2F8E030504BD3F8E03003F002032A
:10099000BB61BB694C4BD3F8E0304B4A43F4007366
:1009A000C2F8E030484BD3F8E03003F400737B61C9
:1009B0007B69454BD3F8E030434A43F00803C2F863
:1009C000E030414BD3F8E03003F008033B613B6972
:1009D0003D4BD3F8E0303C4A43F00103C2F8E0302D
:1009E000394BD3F8E03003F00103FB60FB68364B72
:1009F000D3F8E030344A43F02003C2F8E030324B01
:100A0000D3F8E03003F02003BB60BB682E4BD3F873
:100A1000E0302D4A43F08003C2F8E0302A4BD3F88F
:100A2000E03003F080037B607B680022C021274810
:100A30000CF092FE0022082125480CF08DFE0022C9
:100A4000402124480CF088FEC023FB6201233B6355
:100A500000237B630323BB6307F12C0319461B4868
:100A60000CF0C0FB4FF48073FB6202233B63002356
:100A70007B630023BB630023FB6307F12C03194650
:100A800014480CF0AFFB0823FB6201233B630023F7
:100A90007B630323BB6307F12C0319460C480CF05E
:100AA000A1FB4023FB6201233B6300237B63032301
:100AB000BB6307F12C03194606480CF093FB00BFFB
:100AC0004037BD4680BD00BF0044025800040258B4
:100AD000001802580000025880B582B000AF78605C
:100AE000012006F011F8FBE780B584B000AF3B466B
:100AF00000221A605A609A60DA600CF099F80123BB
:100B00003B7000237B704FF050437B6013233B729C
:100B100000237B720023BB720323FB7201233B7310
:100B200000237B730123BB730123FB733B461846F1
:100B30000CF0B6F801237B704FF010437B601A2352
:100B40003B723B4618460CF0ABF804200CF088F8DA
:100B500000BF1037BD4680BD80B582B000AF786061
:100B60007B681B68044A934201D10BF023FF00BF4E
:100B70000837BD4680BD00BF0010004080B400AF04
:100B800072B600BFFEE7000080B58CB000AF364BF8
:100B9000D3F8E430344A43F00803C2F8E430324B6F
:100BA000D3F8E43003F00803BB61BB692E4BD3F8E4
:100BB000E0302D4A43F48073C2F8E0302A4BD3F87A
:100BC000E03003F480737B617B69274BD3F8E0301E
:100BD000254A43F40073C2F8E030234BD3F8E030E9
:100BE00003F400733B613B691F4BD3F8E0301E4AAE
:100BF00043F48063C2F8E0301B4BD3F8E03003F4D9
:100C00008063FB60FB68184BD3F8E030164A43F072
:100C10008003C2F8E030144BD3F8E03003F08003D7
:100C2000BB60BB68104BD3F8E0300F4A43F00803B9
:100C3000C2F8E0300C4BD3F8E03003F008037B60DF
:100C40007B688023FB6101233B6207F11C0319468B
:100C500006480CF0C7FA0122802104480CF07CFD04
:100C600000BF3037BD4680BD00440258000C02581A
:100C700080B584B000AF786003233B7301237B739E
:100C80004023BB7307F10C03194600200AF010FE45
:100C90000346002B01D07B68984700200AF0E2FE53
:100CA0000346002B01D07B68984700BF1037BD4634
:100CB00080BD80B582B000AF786000200BF040FAB4
:100CC00000200BF0E1F90346002B01D07B68984728
:100CD00000BF0837BD4680BD80B582B000AF0C4B69
:100CE000D3F8F4300A4A43F00203C2F8F430084B58
:100CF000D3F8F43003F002037B607B6800220F21FD
:100D00006FF001000BF05EFF00BF0837BD4680BDED
:100D10000044025880B485B000AF78607B681B68DF
:100D20000B4A93420ED10B4BD3F8E030094A43F4FF
:100D30000023C2F8E030074BD3F8E03003F400237F
:100D4000FB60FB6800BF1437BD465DF8047B70474D
:100D5000004C02580044025880B584B000AF78605F
:100D60007B681B680E4A934216D10E4BD3F8D430E1
:100D70000C4A43F01003C2F8D4300A4BD3F8D430F5
:100D800003F01003FB60FB68002205215A200BF0E2
:100D900019FF5A200BF030FF00BF1037BD4680BD51
:100DA000001000520044025880B5BCB000AF78601B
:100DB00007F1DC0300221A605A609A60DA601A6157
:100DC00007F12003BC220021184622F007FB7B68B4
:100DD0001B68684A934240F0C8804FF000533B6262
:100DE00005237B64A023BB640223FB6402233B65D1
:100DF00053237B654FF40063BB650023FB65002331
:100E00003B6607F12003184610F000F80346002B5C
:100E100001D0FFF7B3FE584BD3F8E430564A43F005
:100E20000803C2F8E430544BD3F8E43003F008036D
:100E3000FB61FB69504BD3F8E0304F4A43F48063C9
:100E4000C2F8E0304C4BD3F8E03003F48063BB6170
:100E5000BB69494BD3F8E030474A43F48073C2F88A
:100E6000E030454BD3F8E03003F480737B617B695D
:100E7000414BD3F8E030404A43F40073C2F8E0300D
:100E80003D4BD3F8E03003F400733B613B693A4BD0
:100E9000D3F8E030384A43F08003C2F8E030364BF4
:100EA000D3F8E03003F08003FB60FB68FC23C7F855
:100EB000DC300223C7F8E0300023C7F8E430022317
:100EC000C7F8E8300E23C7F8EC3007F1DC03194609
:100ED0002A480CF087F94DF20323C7F8DC300223CF
:100EE000C7F8E0300023C7F8E4300223C7F8E83041
:100EF0000E23C7F8EC3007F1DC03194620480CF04C
:100F000071F94FF6FB73C7F8DC300223C7F8E03005
:100F10000023C7F8E4300223C7F8E8300E23C7F8EF
:100F2000EC3007F1DC03194616480CF05BF94FF47E
:100F30000073C7F8DC300223C7F8E0300023C7F89D
:100F4000E4300223C7F8E8300E23C7F8EC3007F18D
:100F5000DC0319460C480CF045F900220521582005
:100F60000BF030FE58200BF047FE00BFF037BD46B7
:100F700080BD00BF001000500044025800280258F5
:100F80000020025800240258001C025880B5BCB052
:100F900000AF786007F1DC0300221A605A609A60A3
:100FA000DA601A6107F12003BC220021184622F002
:100FB00015FA7B681B68764A934240F0E4804FF054
:100FC00000733B620023BB6607F1200318460FF055
:100FD0001DFF0346002B01D0FFF7D0FD6D4BD3F86A
:100FE000D4306C4A43F48043C2F8D430694BD3F810
:100FF000D43003F48043FB61FB69664BD3F8E030E7
:10100000644A43F04003C2F8E030624BD3F8E0306A
:1010100003F04003BB61BB695E4BD3F8E0305D4A2F
:1010200043F02003C2F8E0305A4BD3F8E03003F02D
:1010300020037B617B69574BD3F8E030554A43F07E
:101040008003C2F8E030534BD3F8E03003F0800364
:101050003B613B694F4BD3F8E0304E4A43F0080305
:10106000C2F8E0304B4BD3F8E03003F00803FB60EC
:10107000FB684FF48443C7F8DC300223C7F8E03044
:101080000023C7F8E4300323C7F8E8300923C7F882
:10109000EC3007F1DC0319463F480CF0A3F840237D
:1010A000C7F8DC300223C7F8E0300123C7F8E4308A
:1010B0000323C7F8E8300A23C7F8EC3007F1DC0354
:1010C000194635480CF08EF84FF49863C7F8DC30B9
:1010D0000223C7F8E0300023C7F8E4300323C7F841
:1010E000E8300923C7F8EC3007F1DC0319462B4838
:1010F0000CF078F84FF40073C7F8DC300223C7F81F
:10110000E0300023C7F8E4300323C7F8E8300A23AF
:10111000C7F8EC3007F1DC03194620480CF062F800
:101120000C23C7F8DC300223C7F8E0300023C7F8EF
:10113000E4300323C7F8E8300923C7F8EC3007F19F
:10114000DC03194616480CF04DF84FF40063C7F85D
:10115000DC300223C7F8E0300023C7F8E430032373
:10116000C7F8E8300923C7F8EC3007F1DC0319466B
:101170000C480CF037F8002205215C200BF022FD12
:101180005C200BF039FD00BFF037BD4680BD00BFCD
:10119000005000520044025800180258001402582F
:1011A000001C0258000C025880B5B6B000AF07F121
:1011B000C40300221A605A609A60DA601A614F4BC9
:1011C0001B68002B40F096804C4B01221A6007F1FF
:1011D0000803BC220021184622F000F94FF080736A
:1011E000BB600023FB6407F1080318460FF00EFEF6
:1011F0000346002B01D0FFF7C1FC414BD3F8D4309C
:101200003F4A43F48053C2F8D4303D4BD3F8D43036
:1012100003F480537B607B684FF68373C7F8C43058
:101220000223C7F8C8300023C7F8CC300323C7F81F
:10123000D0300C23C7F8D43007F1C4031946314825
:101240000BF0D0FF48F23313C7F8C4300223C7F8BD
:10125000C8300023C7F8CC300323C7F8D0300C23A4
:10126000C7F8D43007F1C403194627480BF0BAFF7A
:101270004CF20373C7F8C4300223C7F8C830002308
:10128000C7F8CC300323C7F8D0300C23C7F8D430CC
:1012900007F1C40319461D480BF0A4FF4FF63F03A6
:1012A000C7F8C4300223C7F8C8300023C7F8CC30D1
:1012B0000323C7F8D0300C23C7F8D43007F1C40398
:1012C000194613480BF08EFFE023C7F8C430022301
:1012D000C7F8C8300023C7F8CC300323C7F8D03094
:1012E0000C23C7F8D43007F1C403194609480BF0A2
:1012F00079FF00E000BFD837BD4680BD040300245D
:10130000004402580010025800180258000C0258FD
:1013100000140258001C025880B582B000AF7860FB
:10132000FFF742FF00BF0837BD4680BD80B500AF64
:10133000144B1B68002B23D1124B01221A60124B55
:10134000D3F8D430104A23F48053C2F8D4304FF687
:1013500083710E480CF0F6F848F233110C480CF08B
:10136000F1F84CF203710B480CF0ECF84FF63F012A
:1013700009480CF0E7F8E02108480CF0E3F800E039
:1013800000BF80BD0803002400440258001002582A
:1013900000180258000C025800140258001C025891
:1013A00080B582B000AF7860FFF7C0FF00BF08379C
:1013B000BD4680BD80B590B000AF78607B680F2BD4
:1013C00027D80022796836200BF0FCFB36200BF082
:1013D00013FC294A7B681360284BD3F8E830274A6E
:1013E00043F01003C2F8E830244BD3F8E83003F0A0
:1013F0001003FB60FB6807F1100207F114031146AC
:1014000018460FF0C1FCBB6ABB63BB6B002B06D157
:1014100001E001232BE00FF08BFCF86304E00FF0F8
:1014200087FC03465B00FB63FB6B154AA2FB0323AF
:101430009B0C013B7B63134B134A1A60114B40F228
:10144000E732DA600F4A7B6B53600E4B00221A6161
:101450000C4B00229A600B4810F037FE0346002B1D
:1014600004D1084810F092FE034600E0012318461C
:101470004037BD4680BD00BF4800002400440258EC
:1014800083DE1B430C0300240010004080B400AF37
:10149000FEE780B400AFFEE780B400AFFEE780B4A3
:1014A00000AFFEE780B400AFFEE780B400AF00BF3E
:1014B000BD465DF8047B704780B500AF024810F070
:1014C000DDFE00BF80BD00BF0C03002480B500AF6F
:1014D00002480DF0CDF800BF80BD00BFD40100244C
:1014E00080B500AF02480BF06DFD00BF80BD00BFAE
:1014F0006C01002480B500AF02480DF0B3FD00BFC1
:1015000080BD00BF7C02002480B400AF01231846D8
:10151000BD465DF8047B704780B582B000AF78604F
:10152000396021F001FF034616221A604FF0FF33A5
:1015300018460837BD4680BD80B582B000AF7860E0
:101540004FF0FF317868FFF7E7FFFEE780B586B020
:1015500000AFF860B9607A6000237B610AE0AFF306
:1015600000800146BB685A1CBA60CAB21A707B6917
:1015700001337B617A697B689A42F0DB7B681846AD
:101580001837BD4680BD80B586B000AFF860B96041
:101590007A6000237B6109E0BB685A1CBA601B7843
:1015A0001846AFF300807B6901337B617A697B6801
:1015B0009A42F1DB7B6818461837BD4680BD80B47F
:1015C00083B000AF78604FF0FF3318460C37BD464C
:1015D0005DF8047B704780B483B000AF78603960F9
:1015E0003B684FF400525A60002318460C37BD4642
:1015F0005DF8047B704780B483B000AF786001234E
:1016000018460C37BD465DF8047B704780B485B042
:1016100000AFF860B9607A60002318461437BD4601
:101620005DF8047B7047000080B586B000AF78603D
:10163000144A154BD31A7B617B693B61134B1B68C2
:10164000002B02D1114B124A1A60104B1A687B68AA
:1016500013443A699A4207D221F066FE03460C22EF
:101660001A604FF0FF3309E0084B1B68FB60074B23
:101670001A687B681344054A1360FB6818461837DC
:10168000BD4680BD0000082400100000580300245F
:1016900018B10024DFF834D008F01EFD0C480D49C5
:1016A0000D4A002302E0D458C4500433C4188C42BD
:1016B000F9D30A4A0A4C002301E013600432A24223
:1016C000FBD321F049FEFEF75BFE704700000824C3
:1016D000000000242C010024546302082C01002483
:1016E00018B10024FEE780B500AF01F023FD00BF74
:1016F00080BD80B582B000AF786001F045FD00BFCD
:101700000837BD4680BD000080B483B000AF78606C
:10171000044A7B681A607B6818460C37BD465DF842
:10172000047B70472451020880B582B000AF786016
:101730007868FFF7E9FF0421786821F094FD7B6861
:1017400018460837BD4680BD80B582B000AF7860CE
:1017500000F050FB00BF0837BD4680BD80B584B0A7
:1017600000AFF860B9607A607968B86800F066FB2D
:10177000034618461037BD4680BD000080B582B0D4
:1017800000AF7860054A7B681A607B681846FFF7EF
:10179000BBFF7B6818460837BD4680BD0C51020868
:1017A00080B582B000AF78607868FFF7E7FF04216A
:1017B000786821F058FD7B6818460837BD4680BD23
:1017C00080B582B000AF0346FB71FB79032B47D88D
:1017D00001A252F823F000BFE9170008071800081B
:1017E0002518000843180008FB791F4A52F82330D7
:1017F000002B0CBF01230023DBB21A4640211B48FB
:101800000BF0AAFF2CE0FB79174A52F82330002B8B
:101810000CBF01230023DBB21A46802113480BF0D2
:101820009BFF1DE0FB79104A52F82330002B0CBFC0
:1018300001230023DBB21A4608210D480BF08CFF70
:101840000EE0FB79084A52F82330002B0CBF01232D
:101850000023DBB21A46402106480BF07DFF00BF93
:1018600000BF0837BD4680BD5C0300240004025859
:10187000001802580000025880B582B000AF03463D
:10188000FB71FB79032B47D801A252F823F000BF6C
:10189000A1180008BF180008DD180008FB18000890
:1018A000FB791F4A52F82330002B01D0012300E0BE
:1018B00000231A4640211B480BF04EFF2CE0FB7919
:1018C000174A52F82330002B01D0012300E00023F7
:1018D0001A46802113480BF03FFF1DE0FB79104AA8
:1018E00052F82330002B01D0012300E000231A46D8
:1018F00008210D480BF030FF0EE0FB79084A52F842
:101900002330002B01D0012300E000231A464021A0
:1019100006480BF021FF00BF00BF0837BD4680BD61
:101920005C0300240004025800180258000002580A
:1019300080B582B000AF0346FB71FB79032B1FD843
:1019400001A252F823F000BF5919000863190008DA
:101950006D1900087719000840210B480BF015FF9E
:101960000EE0802108480BF010FF09E0082107482D
:101970000BF00BFF04E0402105480BF006FF00BF11
:1019800000BF0837BD4680BD000402580018025849
:101990000000025880B483B000AF7860044A7B68CE
:1019A0001A607B6818460C37BD465DF8047B7047AB
:1019B0005C5B020880B582B000AF78607868FFF7A2
:1019C000E9FF7C21786821F04EFC7B6818460837D7
:1019D000BD4680BD80B483B000AF78600B46FB701D
:1019E0007B68FA7883F874207B68012283F875207D
:1019F00000BF0C37BD465DF8047B704780B582B0F0
:101A000000AF78600B467B8013463B800C4B1B88F5
:101A10007A889A4204D30B4B1B883A889A4205D2A3
:101A2000094B0A4A9E210A4821F04CFC094A7B884E
:101A30001380094A3B88138000BF0837BD4680BD2C
:101A400068AE00246AAE002458440208BC44020870
:101A5000004502086EAE002470AE002480B582B04E
:101A600000AF78607B6893F87730002B09D07B68F3
:101A70005A687B685B681B681B681046984703467A
:101A800000E0002318460837BD4680BD80B582B00F
:101A900000AF7860786811F07FFF7B681B68AC331B
:101AA0001B687868984700BF0837BD4680BD80B482
:101AB00083B000AF78603960002318460C37BD460C
:101AC0005DF8047B7047000080B584B000AFF8601B
:101AD000B9607A603B60BB68002B06D10F4B104A9F
:101AE00040F2D2210F4821F0EDFBFB68BA68DA63BF
:101AF000FB687A681A647B68002B14BF01230023FB
:101B0000DAB2094B1A70FB681B688C331B683968A2
:101B1000F868984700BF1037BD4680BD544502089D
:101B20008C4502080045020872AE002480B483B0E0
:101B300000AF786039607B683A685A643B68002B74
:101B400014BF01230023DAB2034B1A7000BF0C3715
:101B5000BD465DF8047B704773AE002480B483B04B
:101B600000AF7860002318460C37BD465DF8047B53
:101B7000704780B582B000AF78600B467B807B6891
:101B80009B6B002B04D07B689B6B7A881046984730
:101B900000BF0837BD4680BD80B483B000AF786019
:101BA0004FF6FF7318460C37BD465DF8047B70474F
:101BB00080B582B000AF78607B685A687B685B68EC
:101BC0001B6818331B6810469847034618460837A9
:101BD000BD4680BD80B485B000AF78607B6893F867
:101BE00074207B6893F834309A4211D0144B1B78E0
:101BF000002B1ED1134B1B88BB81134B1A88114B32
:101C00001A80114ABB8913800D4B01221A7010E013
:101C10000B4B1B78002B0CD00A4B1B88FB810A4B0B
:101C20001A88084B1A80084AFB891380044B00224B
:101C30001A7000BF1437BD465DF8047B704700BFC3
:101C40006CAE00246AAE002468AE002480B582B079
:101C500000AF78607B68184611F004F900BF0837C0
:101C6000BD4680BD80B582B000AF7860054A7B6814
:101C70001A607B681846FFF78DFE7B6818460837A8
:101C8000BD4680BDAC54020880B582B000AF78601C
:101C90007868FFF7E7FF7C21786821F0E4FA7B6839
:101CA00018460837BD4680BD80B582B000AF786069
:101CB0007B681846FFF7CAFF00BF0837BD4680BDE6
:101CC00080B582B000AF78607B68184601F044FDB3
:101CD00000BF0837BD4680BD80B582B000AF7860D8
:101CE0007B68184601F0DAFD034618460837BD4602
:101CF00080BD80B582B000AF786039607B6839689C
:101D0000184601F0D9FD00BF0837BD4680BD80B53B
:101D100082B000AF786039607B683968184601F09E
:101D2000E1FD00BF0837BD4680BD80B584B000AF7F
:101D3000F860B9607A603B60F8683B687A68B968B7
:101D400001F028FE034618461037BD4680BD80B519
:101D500082B000AF78607B68184601F021FD00BFBB
:101D60000837BD4680BD80B582B000AF78607B6823
:101D7000184601F025FD00BF0837BD4680BD80B57F
:101D800082B000AF78607B68184601F027FD00BF85
:101D90000837BD4680BD80B582B000AF78607B68F3
:101DA000184601F029FD00BF0837BD4680BD000080
:101DB00080B582B000AF7860054A7B681A607B68A6
:101DC0001846FFF74FFF7B6818460837BD4680BDB1
:101DD0003C51020880B582B000AF78607868FFF7A8
:101DE000E7FF7C21786821F03EFA7B6818460837C7
:101DF000BD4680BD80B584B000AF4FF4F0733B604A
:101E00004FF488737B600823BB600023FB603B4674
:101E1000194600200AF01AFB0346002B14BF0123C9
:101E20000023DBB2002B03D1034B01221A7000E028
:101E300000BF1037BD4680BD6C03002480B582B062
:101E400000AF78603960114B1B7883F00103DBB27F
:101E5000002B01D0002314E00D4900200AF0B2FB52
:101E60000B4B1B68002B01D100230AE0084B5B6879
:101E70001A467B681A60064B9B681A463B681A60D4
:101E8000012318460837BD4680BD00BF6C030024FF
:101E90007003002480B500AF00220121012004F06E
:101EA0004EFE03460F4A13600E4B1B68002B05D1F4
:101EB0000D4B0E4A28210E4821F004FA002204217D
:101EC000012004F05BFF03460A4A1360094B1B68BC
:101ED000002B05D1084B054A2C21054821F0F2F9C9
:101EE00000BF80BD7C030024DC45020828460208B0
:101EF0005846020880030024BC46020880B500AFA3
:101F0000044B1B684FF0FF31184604F0A1FE00BFE0
:101F100080BD00BF7C03002480B500AF034B1B686D
:101F2000184604F0E7FE00BF80BD00BF7C0300241C
:101F300080B500AF034B1B680021184604F088FEF3
:101F400000BF80BD7C03002480B500AF034B1B683D
:101F5000184604F0CFFE00BF80BD00BF7C03002404
:101F600080B500AF044B186800230022034904F039
:101F700079FF00BF80BD00BF80030024040000245F
:101F800080B582B000AF094B1868391D00230022CC
:101F900004F0C8FF054B1868391D4FF0FF330022CD
:101FA00004F0C0FF00BF0837BD4680BD8003002499
:101FB00080B483B000AF0346FB80B7F90630002B36
:101FC0000BDBFB8803F01F020749B7F906305B09FA
:101FD000012000FA02F241F8232000BF0C37BD4671
:101FE0005DF8047B704700BF00E100E080B483B07F
:101FF00000AF0346FB80B7F90630002B12DBFB88ED
:1020000003F01F020A49B7F906305B09012000FA04
:1020100002F2203341F82320BFF34F8F00BFBFF3FC
:102020006F8F00BF00BF0C37BD465DF8047B704763
:1020300000E100E080B483B000AF78607B680022EC
:102040001A607B6818460C37BD465DF8047B704704
:1020500080B483B000AF78607B681B6818460C378B
:10206000BD465DF8047B704780B483B000AF7860F4
:10207000044A7B681A607B6818460C37BD465DF8D9
:10208000047B70476452020880B582B000AF78606C
:102090007868FFF7E9FF0421786821F0E4F87B68AD
:1020A00018460837BD4680BD80B582B000AF786065
:1020B0007B681B6844331B687868984700BF083703
:1020C000BD4680BD80B483B000AF7860044A7B68B1
:1020D0001A607B6818460C37BD465DF8047B704774
:1020E000345C020880B582B000AF78607868FFF792
:1020F000E9FF0C21786821F0B6F87B6818460837AC
:10210000BD4680BD80B483B000AF78603960094AB5
:102110007B681A607B683A685A607B6800221A7292
:102120007B6800225A727B6818460C37BD465DF802
:10213000047B7047345C020880B483B000AF7860E1
:10214000012318460C37BD465DF8047B704780B507
:1021500082B000AF78607A687B681B6828331B68A0
:102160001046984700BF0837BD4680BD80B400AF19
:10217000034B1B681846BD465DF8047B704700BFE3
:1021800074AE002480B582B000AF78607B685A6876
:102190007B685B681B6814331B681046984700BF58
:1021A0000837BD4680BD80B582B000AF7860FFF7CC
:1021B000DDFF03461846FFF7E5FF00BF0837BD46C1
:1021C00080BD80B582B000AF78607B680C33184664
:1021D000FFF730FF7B6818460837BD4680BD00001A
:1021E000B0B582B000AF78607A687B680C3319466E
:1021F0001046FFF787FF0E4A7B681A607B6803F181
:102200000C007B6820336022194611F0FFFC7B68CC
:1022100020335F241D46002C05DB2846FFF7D1FF45
:102220002435013CF7E77B6818460837BD46B0BD4A
:102230001452020880B582B000AF7860094A7B680A
:102240001A605A20FFF7D2FE7B680C33184600F064
:10225000CBFA7B681846FFF735FF7B6818460837CE
:10226000BD4680BD1452020880B582B000AF7860D0
:102270007868FFF7DFFF4FF45A61786820F0F3FFCA
:102280007B6818460837BD4680BD000080B584B025
:1022900000AF7860124BD3F8D430114A43F01003EA
:1022A000C2F8D4300E4BD3F8D43003F01003FB60E7
:1022B000FB680B4BDB6F0A4A43F01003D367084BF4
:1022C000DB6F074A23F01003D367064B064A1A62F6
:1022D0005A20FFF76DFE00BF1037BD4680BD00BF1E
:1022E000004402586C010024A721000880B584B086
:1022F00000AF78600B46FB700023FB60FB780B2B74
:1023000026D801A252F823F0452300083F230008F5
:1023100039230008512300085123000851230008E5
:10232000512300084B2300084B2300084B230008CF
:102330004B2300084B2300080023FB600EE0012321
:10234000FB600BE00223FB6008E00523FB6005E077
:10235000054B064A6621064820F0B4FFFB68184684
:102360001037BD4680BD00BF004702081C47020869
:102370006847020880B584B000AF78600B46FB70F8
:102380000023FB60FB780A2B21D801A252F823F02E
:10239000C9230008C3230008BD230008CF23000879
:1023A000CF230008CF230008CF230008C323000851
:1023B000C3230008C3230008C32300080023FB60D5
:1023C0000BE00123FB6008E00223FB6005E0054B06
:1023D000054A8721054820F075FFFB68184610372D
:1023E000BD4680BD00470208CC4702086847020886
:1023F00080B483B000AF786040F2EF3318460C37FA
:10240000BD465DF8047B704790B589B000AF786039
:1024100039603B685B7F19467868FFF767FFB861F2
:102420003B689B7F19467868FFF760FF78613B68DF
:102430009B7F19467868FFF79DFF38613B685B8B8F
:102440001A463B689B8AD21A924B1A643B685B8B94
:102450001A463B689B8AD21A8E4B9A613B681B8B4B
:102460001A463B689B8AD21A8A4B1A61894A3B6991
:1024700053633B68DB8A1A463B689B8A1B041A43FA
:10248000844B5A643B681A69824BDA633B685A682A
:10249000804BDA603B681B68B3F5007F36D0B3F53C
:1024A000007F00F2E280B3F5807F14D0B3F5807F27
:1024B00000F2DB80802B59D0802B00F2D680402B9D
:1024C00000F0BE80402B00F2D080042B39D0202BAE
:1024D00000F0B680C9E03B681B7F1B0619466D4AB9
:1024E0006D4B0B43D3613B680C336A4C1846FFF7C6
:1024F000AFFD03462362674A7B6953623B681A69F2
:10250000644B5A61634B654A1A60DAE03B681B7F93
:102510001B0619465F4A624B0B43D3613B680C3381
:102520005C4C1846FFF794FD03462362594A7B69C9
:1025300053623B681A69574B5A61564B574A1A60A7
:10254000BFE03B681B7F1B061A46BB691343514A19
:1025500043F40033D3614F4A7B6953623B681A6985
:102560004C4B5A614B4B4D4A1A60AAE00123FB7752
:102570003B689B68FB60FB681A1D464BDA623B6850
:102580001B7F1B061A46BB691343424A43F40033C0
:10259000D361404A7B6953623B681A693D4B5A617B
:1025A000FB681B88DBB2002B02D0012B0DD020E092
:1025B000384BDA693B4B1340FA685288013A1202F1
:1025C0001146344A0B43D3611AE03B681B7FFF2B53
:1025D00001D10023FB772F4BDA69324B1340FA68A5
:1025E0005288013A120213432A4A43F01003D3617E
:1025F00006E02D4B2D4A40F211112D4820F062FECD
:10260000244BDB69234A43F02003D361214BDB6970
:1026100003F02003002B14BF01230023DBB2002BA7
:1026200000D0F3E71B4B10229A60FB7F002B03D0F6
:10263000184B1A4A1A6044E0164B1E4A1A6040E0D2
:102640003B681B7F1B061A46BB691343114A43F4C0
:102650000033D3610F4A7B6953623B681A690D4BA3
:102660005A610C4B0D4A1A602BE03B681B7F1B061E
:102670001A46BB691343074A43F40033D3613B68EE
:102680005A7F3B689B7F9A4216D0024B094A1A60D8
:1026900016E000BF001000520A0002000102020012
:1026A00009000200EF00FFFF184802083448020842
:1026B0006847020801020100044B40F201221A603F
:1026C00000BF00BF2437BD4690BD00BF00100052C0
:1026D00090B585B000AF786039603B689B7F194644
:1026E0007868FFF747FEF8603B4AFB6853633B6836
:1026F000DB8A1A463B689B8A1B041A43364B5A6492
:102700003B681A69344BDA633B685B8B1A463B685B
:102710009B8AD21A304B1A643B681B68082B2ED157
:102720003B685B8B1A463B689B8AD21A2A4B9A619C
:102730003B685B8B1A463B689B8AD21A264B1A6110
:10274000254AFB6853623B681B7F1B061946224AD9
:10275000224B0B43D3613B680C331F4C1846FFF7E9
:1027600077FC034623623B681A691B4B5A613B683E
:102770001A69194BDA60184B194A1A6027E0164A91
:10278000FB68D361144B00221A613B680C33184676
:10279000FFF75EFC03461B0A03F478443B680C33E6
:1027A0001846FFF755FC03465B0903F4FC631C4322
:1027B0003B680C331846FFF74BFC0346DB0803F07D
:1027C0001F03054A23439363034B064A1A6000BF65
:1027D0001437BD4690BD00BF001000520900010033
:1027E000010202000102030080B582B000AF7860F0
:1027F000054A7B681A607B681846FFF735FC7B68E2
:1028000018460837BD4680BD845C020880B582B09A
:1028100000AF78607868FFF7E7FF1421786820F050
:1028200022FD7B6818460837BD4680BD80B483B062
:1028300000AF78607B6800221A807B6800225A8093
:102840007B6800229A807B680022DA807B681846C9
:102850000C37BD465DF8047B7047000080B483B040
:1028600000AF7860044A7B68136000BF0C37BD4638
:102870005DF8047B704700BFD0AE002480B483B005
:1028800000AF7860044A7B681A607B6818460C3792
:10289000BD465DF8047B70479854020880B582B04D
:1028A00000AF78607868FFF7E9FF0421786820F0CE
:1028B000DAFC7B6818460837BD4680BD80B485B019
:1028C00000AFF860B9607A603B600B4AFB681A6041
:1028D000FB68BA685A60FB687A689A60FB683A6875
:1028E000DA60FB68BA691A61FB6818461437BD469E
:1028F0005DF8047B704700BF8854020880B483B041
:1029000000AF7860044A7B681A607B6818460C3711
:10291000BD465DF8047B70478854020880B582B0DC
:1029200000AF78607868FFF7E9FF1421786820F03D
:102930009AFC7B6818460837BD4680BD80B483B0DA
:1029400000AF7860396000BF0C37BD465DF8047B8E
:10295000704780B483B000AF7860396000BF0C3737
:10296000BD465DF8047B704780B483B000AF7860EB
:10297000396000BF0C37BD465DF8047B704780B4FA
:1029800083B000AF78600B46FB7000BF0C37BD46CC
:102990005DF8047B704780B483B000AF786000BFFF
:1029A0000C37BD465DF8047B704780B483B000AF40
:1029B000786000BF0C37BD465DF8047B70470000AF
:1029C00080B483B000AF7860044A7B681A607B688B
:1029D00018460C37BD465DF8047B7047605402080A
:1029E00080B582B000AF78607868FFF7E9FF042116
:1029F000786820F038FC7B6818460837BD4680BDF3
:102A000080B483B000AF7860044A7B681A607B684A
:102A100018460C37BD465DF8047B7047F45D02082C
:102A200080B582B000AF78607868FFF7E9FF0821D1
:102A3000786820F018FC7B6818460837BD4680BDD2
:102A400080B483B000AF786000BF0C37BD465DF83E
:102A5000047B704780B483B000AF78600B46FB7096
:102A600000BF0C37BD465DF8047B704780B483B06F
:102A700000AF786039607B683A6803F59673106838
:102A8000516803C300BF0C37BD465DF8047B704737
:102A900080B483B000AF7860044A7B681A607B68BA
:102AA00018460C37BD465DF8047B70474854020851
:102AB00080B582B000AF78607868FFF7E9FF042145
:102AC000786820F0D0FB7B6818460837BD4680BD8B
:102AD00080B483B000AF78607B6800221A807B6886
:102AE00000225A807B6800229A807B680022DA806C
:102AF0007B6800221A817B6800225A817B68002251
:102B00009A817B6800229A737B6818460C37BD4611
:102B10005DF8047B704780B582B000AF78607B6859
:102B20001846FFF7D5FF7B6800221A617B680022F8
:102B30009A827B6818460837BD4680BD80B584B050
:102B400000AFF860B9607A603B60554AFB681A6074
:102B5000FB68BA685A60FB687A689A60FB683A68F2
:102B6000DA60FB6800221A61FB6800225A61FB6888
:102B700000229A61FB681C331846FFF7CCFFFB6804
:102B8000002283F83420FB6800229A63FB6800224D
:102B9000DA63FB6800221A64FB6800225A64FB684F
:102BA000002283F84820FB68012283F84920FB6853
:102BB000002283F84A20FB68002283F84B20FB6840
:102BC0000022DA64FB6850331846FFF72FFEFB68DB
:102BD00000229A65FB680022DA65FB6800221A660B
:102BE000FB68012283F86420FB68002283F86520DB
:102BF000FB68002283F86620FB68012283F86720C7
:102C0000FB68002283F86820FB68002283F86920B3
:102C1000FB68002283F86A20FB68002283F86B209F
:102C2000FB68002283F86C20FB6800221A67FB68AF
:102C3000002283F87420FB68002283F87520FB686B
:102C4000002283F87620FB68012283F87720FB6856
:102C5000012283F87820134AFB681360124A3B8BE9
:102C60001380114B1A88114B1A80114ABB8B1380A9
:102C70000F4B1A880F4B1A800F4B00221A703A8B99
:102C8000BB8B9A4234BF01230023DBB21A46FB6898
:102C900083F83420FB6818461037BD4680BD00BF5E
:102CA0005C5B020874AE002468AE00246EAE0024A3
:102CB0006AAE002470AE00246CAE002480B582B0F1
:102CC00000AF7860054A7B681A607B681846FFF79A
:102CD00077FE7B6818460837BD4680BD4C5E02080B
:102CE00080B582B000AF78607868FFF7E7FF4FF4F7
:102CF0009C71786820F0B7FA7B6818460837BD46A3
:102D000080BD80B582B000AF7860786800F004F8CC
:102D100000BF0837BD4680BD80B582B000AF786087
:102D20007B68D3F83C31002B0FD07B68D3F83C2173
:102D30007B68D3F83C311B680C331B6810469847FE
:102D40000346002B01D0012300E00023002B0ED00E
:102D50007B68D3F83C217B68D3F83C311B6808338F
:102D60001B68104698477B680022C3F83C2100BFCF
:102D70000837BD4680BD000080B582B000AF7860E6
:102D8000054A7B681A607B681846FFF797FF7B68E7
:102D900018460837BD4680BDFC53020880B582B096
:102DA00000AF78607868FFF7E7FF4FF4A0717868AC
:102DB00020F059FA7B6818460837BD4680BD0000F0
:102DC00080B582B000AF7860084A7B681A607B6883
:102DD00003F5A073184600F00BFB7B681846FFF75D
:102DE000CBFF7B6818460837BD4680BD9853020864
:102DF00080B582B000AF78607868FFF7E1FF4FF4EC
:102E0000AC71786820F02FFA7B6818460837BD4609
:102E100080BD80B582B000AF7860786801F00AF9B3
:102E200000BF0837BD4680BD80B582B000AF786076
:102E3000054A7B681A607B681846FFF7C1FF7B680C
:102E400018460837BD4680BD4C53020880B582B095
:102E500000AF78607868FFF7E7FF4FF4AC717868EF
:102E600020F001FA7B6818460837BD4680BD80B562
:102E700082B000AF78607B68D3F85431184603F015
:102E800085FA7B68184611F03BFF00BF0837BD4646
:102E900080BD80B582B000AF786039603B6818466D
:102EA00001F0C8F800BF0837BD4680BD80B586B0C8
:102EB00002AFF860B9607A603B60F868BB69009364
:102EC0003B687A68B968FFF7F9FC044AFB681A6046
:102ED000FB6818461037BD4680BD00BF3853020856
:102EE00080B500AF014800F059F980BD840300248B
:102EF00080B500AF124B1B78BFF35B8FDBB203F0E2
:102F00000103002B0CBF01230023DBB2002B13D0E5
:102F10000B4820F0AAF90346002B14BF012300231D
:102F2000DBB2002B08D0074800F068F8064820F014
:102F3000E7F9034820F0A5F9024B184680BD00BF11
:102F4000D805002484030024E12E000880B582B057
:102F500000AF7860054A7B681A607B681846FFF707
:102F6000CDFC7B6818460837BD4680BD3853020843
:102F700080B582B000AF78607868FFF7E7FF142172
:102F8000786820F070F97B6818460837BD4680BD28
:102F900080B582B000AF78607B6818460FF0B6FC51
:102FA000034A7B681A607B6818460837BD4680BDB7
:102FB0000453020880B582B000AF78607B68184681
:102FC0000FF0A4FC034A7B681A607B681846083738
:102FD000BD4680BDD052020880B582B000AF786097
:102FE0007B6818460FF092FC034A7B681A607B6886
:102FF00018460837BD4680BD9C52020890B585B082
:1030000002AF786078687B6803F114017B6803F194
:103010002C027B6803F1E4047B68FC3300932346B5
:10302000FFF744FF154A7B681A607B681433184623
:10303000FFF7AEFF7B682C331846FFF7BBFF7B68BA
:10304000E4331846FFF7C8FF7B68F833184603F0EF
:103050008FF97B6803F1FC007B68F8337A681946C6
:1030600003F070F97A687B68FC3319461046FFF765
:1030700010FF7B6818460C37BD4690BD8852020889
:1030800080B586B002AFF860B9607A603B60F868DE
:10309000BB8B01933B8B00933B687A68B968FFF761
:1030A0004DFD044AFB681A60FB6818461037BD46A0
:1030B00080BD00BFAC54020880B586B002AFF86096
:1030C000B9607A603B60F868BB8B01933B8B0093DF
:1030D0003B687A68B968FFF7D3FF044AFB681A6057
:1030E000FB6818461037BD4680BD00BF3C51020842
:1030F00080B483B000AF7860044A7B681A607B6854
:1031000018460C37BD465DF8047B70472451020811
:1031100080B582B000AF78607B681846FFF7E8FFA3
:10312000034A7B681A607B6818460837BD4680BD35
:103130000C51020890B585B002AF00F055FD044671
:1031400000F05CFD03461946002300930023002293
:10315000204614F09BFA0948FFF780FB002003F09B
:103160005FF8074814F0FAF9FFF7C2FE78600548E7
:10317000FEF7A6FD00BF0C37BD4690BDF813002436
:1031800008000024FC13002480B500AF02480FF0B3
:10319000D0FE00BF80BD00BFFC13002480B582B00C
:1031A00000AF78600F4A7B681A607B68FC33184672
:1031B000FFF73AFE7B68E433184600F027F87B6897
:1031C0002C33184600F044F87B681433184600F09E
:1031D00061F87B681846FFF7B9FE7B681846083728
:1031E000BD4680BD8852020880B582B000AF7860CD
:1031F0007868FFF7D3FF4FF41571786820F033F843
:103200007B6818460837BD4680BD000080B582B097
:1032100000AF7860054A7B681A607B6818460FF03B
:1032200074FB7B6818460837BD4680BD9C52020877
:1032300080B582B000AF78607868FFF7E7FF1421AF
:10324000786820F010F87B6818460837BD4680BDC6
:1032500080B582B000AF7860054A7B681A607B68F1
:1032600018460FF052FB7B6818460837BD4680BDF4
:10327000D052020880B582B000AF78607868FFF75E
:10328000E7FFB82178681FF0EEFF7B681846083723
:10329000BD4680BD80B582B000AF7860054A7B68CE
:1032A0001A607B6818460FF030FB7B6818460837B9
:1032B000BD4680BD0453020880B582B000AF78607F
:1032C0007868FFF7E7FF182178681FF0CCFF7B686C
:1032D00018460837BD4680BD80B582B000AF786023
:1032E000054A7B681A607B681846FFF7C7FA7B6857
:1032F00018460837BD4680BD8455020880B582B0A7
:1033000000AF78607868FFF7E7FF042178681FF066
:10331000AAFF7B6818460837BD4680BD80B582B0DD
:1033200000AF7860054A7B681A607B681846FFF733
:1033300067FB7B6818460837BD4680BDF861020808
:1033400080B582B000AF78607868FFF7E7FF78213A
:1033500078681FF088FF7B6818460837BD4680BD37
:1033600080B584B002AF786039607B68012B19D1D9
:103370003B684FF6FF72934214D11848FFF7C8FE1E
:103380001748FEF72DFF174817F082FA4FF488739D
:1033900001934FF4F0730093104B124A10491248F6
:1033A000FFF78AFE7B68002B13D13B684FF6FF7254
:1033B00093420ED10C48FEF7FBFC0C48FFF78CFF44
:1033C0000848FFF7ABFF0648FEF734FF0348FEF757
:1033D000D5F900BF0837BD4680BD00BFDC0500241D
:1033E000E005002480130024FC13002408000024BE
:1033F00080B582B000AF7860054A7B681A607B6850
:103400001846FFF745FB7B6818460837BD4680BD68
:10341000E453020880B582B000AF78607868FFF7A7
:10342000E7FF102178681FF01EFF7B6818460837F9
:10343000BD4680BD80B483B000AF786001231846DC
:103440000C37BD465DF8047B704780B483B000AF95
:1034500078600C2318460C37BD465DF8047B704736
:1034600080B483B000AF78600B467B807A881346C7
:103470005B0013449B0008337A68134418460C37EA
:10348000BD465DF8047B704780B483B000AF7860C0
:103490000B467B807A8813465B0013449B000833FD
:1034A0007A68134418460C37BD465DF8047B7047B4
:1034B00080B483B000AF7860012318460C37BD4656
:1034C0005DF8047B704780B483B000AF7860B023B0
:1034D00018460C37BD465DF8047B704780B483B056
:1034E00000AF78600B467B807B88B02202FB03F341
:1034F00008337A68134418460C37BD465DF8047BE0
:10350000704780B483B000AF78600B467B807B88C7
:10351000B02202FB03F308337A68134418460C37D1
:10352000BD465DF8047B704780B483B000AF78601F
:10353000012318460C37BD465DF8047B704780B404
:1035400083B000AF7860102318460C37BD465DF895
:10355000047B704780B483B000AF78600B467B80FB
:103560007B881B0108337A68134418460C37BD4624
:103570005DF8047B704780B483B000AF78600B4681
:103580007B807B881B0108337A68134418460C370C
:10359000BD465DF8047B704780B582B000AF7860AF
:1035A0007B685B687A68D268521099187B68DB6820
:1035B00003F00103002B02D17B689B680AE07B6863
:1035C0005B687A68D268521013441B687A68926804
:1035D00013441B680846984700BF0837BD4680BDA6
:1035E00080B483B000AF78607B685B68002B10D03C
:1035F0007B689B68002B07D17B68DB6803F00103C5
:10360000002B01D1012300E00023012B01D0012375
:1036100000E0002318460C37BD465DF8047B704778
:1036200080B500AF4FF6FF710120FFF799FE80BD16
:1036300080B500AF4FF6FF710020FFF791FE80BD0F
:1036400080B582B000AF78607B681B6820331B6850
:103650007868984700BF0837BD4680BD80B483B006
:1036600000AF78607B6893F866300133DAB27B682C
:1036700083F8662000BF0C37BD465DF8047B7047B9
:1036800080B483B000AF0346FB80B7F90630002B4F
:103690000BDBFB8803F01F020749B7F906305B0913
:1036A000012000FA02F241F8232000BF0C37BD468A
:1036B0005DF8047B704700BF00E100E080B483B098
:1036C00000AF0346FB80B7F90630002B12DBFB8806
:1036D00003F01F020A49B7F906305B09012000FA1E
:1036E00002F2203341F82320BFF34F8F00BFBFF316
:1036F0006F8F00BF00BF0C37BD465DF8047B70477D
:1037000000E100E080B483B000AF03463960FB8085
:10371000B7F90630002B0ADB3B68DAB20C49B7F97F
:1037200006301201D2B20B4483F800230AE03B6852
:10373000DAB20849FB8803F00F03043B1201D2B24E
:103740000B441A7600BF0C37BD465DF8047B70470A
:1037500000E100E000ED00E0B0B582B000AF7860BD
:103760007B6818460FF0D3FB7D687B681B68643369
:103770001C6811F00DFC034619462846A0477868DE
:103780007B681B6888331C680023044A4FF0504153
:10379000A04700BF0837BD46B0BD00BF000020D025
:1037A00080B582B000AF786009215A20FFF7AAFFE8
:1037B00009215820FFF7A6FF00BF0837BD4680BD8E
:1037C00080B582B000AF78605A20FFF759FF5820CB
:1037D000FFF756FF00BF0837BD4680BD80B582B0F9
:1037E00000AF78605A20FFF769FF5820FFF766FFA7
:1037F00000BF0837BD4680BD80B483B000AF78609D
:10380000114BDB689BB2C3F30A039BB2013B9AB234
:103810000E4B1A800C4B1B699BB2C3F30A039BB27D
:10382000013B9AB20A4B1A80084B1A88064B1A645D
:10383000054B5B6B044A43F00103536300BF0C3735
:10384000BD465DF8047B7047001000507A140024D8
:103850007C14002480B582B000AF78607B68184685
:103860000FF03CFB034618460837BD4680BD0000FC
:1038700080B582B000AF78607B6893F84B30002B46
:1038800002D0054B01221A707B6818460FF032FBFC
:1038900000BF0837BD4680BD7814002480B483B0D3
:1038A00000AF7860034B9B6A18460C37BD465DF845
:1038B000047B70478410005080B483B000AF786000
:1038C0003960064A3B689362054B01225A6200BF89
:1038D0000C37BD465DF8047B704700BF8410005074
:1038E0000010005080B586B000AF786039607B680A
:1038F000396818460FF0BCFA254B5B6903F4803336
:10390000002B14BF01230023DBB2002B3CD0204B43
:103910000022C3F88420BFF34F8F00BF1C4BD3F8A5
:1039200080307B617B695B0BC3F30E033B617B697A
:10393000DB08C3F30903FB603B695A0143F6E073FC
:103940001340FA68920712491343C1F87432FB68B6
:103950005A1EFA60002B14BF01230023DBB2002B98
:1039600000D0E9E73B695A1E3A61002B14BF0123DE
:103970000023DBB2002B00D0D9E7BFF34F8F00BF8D
:10398000BFF36F8F00BF00BF00BF1837BD4680BDBB
:1039900000ED00E080B584B000AFF860B9607A60F7
:1039A0003B60F8683B687A68B9680FF0CAFB034669
:1039B00018461037BD4680BD80B487B000AF786030
:1039C000264B5B6903F48033002B14BF01230023D3
:1039D000DBB2002B3CD0214B0022C3F88420BFF384
:1039E0004F8F00BF1D4BD3F880307B617B695B0B31
:1039F000C3F30E033B617B69DB08C3F30903FB6080
:103A00003B695A0143F6E0731340FA689207134981
:103A10001343C1F87432FB685A1EFA60002B14BFBE
:103A200001230023DBB2002B00D0E9E73B695A1EDB
:103A30003A61002B14BF01230023DBB2002B00D01E
:103A4000D9E7BFF34F8F00BFBFF36F8F00BF00BF39
:103A500000BF1C37BD465DF8047B704700ED00E0F9
:103A600080B487B000AF7860264B5B6903F4803385
:103A7000002B14BF01230023DBB2002B3CD0214BD1
:103A80000022C3F88420BFF34F8F00BF1D4BD3F833
:103A900080307B617B695B0BC3F30E033B617B6909
:103AA000DB08C3F30903FB603B695A0143F6E0738B
:103AB0001340FA68920713491343C1F87432FB6844
:103AC0005A1EFA60002B14BF01230023DBB2002B27
:103AD00000D0E9E73B695A1E3A61002B14BF01236D
:103AE0000023DBB2002B00D0D9E7BFF34F8F00BF1C
:103AF000BFF36F8F00BF00BF00BF1C37BD465DF82E
:103B0000047B704700ED00E080B582B000AF7860C4
:103B1000FEF72CFB0346002B0CBF01230023DBB276
:103B2000002B32D11B4B1B6C1B4A128893420CBFDB
:103B300001230023DBB2002B17D0184B1B8819463A
:103B400078680AF08BFEFEF711FB03461846FFF774
:103B500085FDFEF705FAFEF709FB034618460FF050
:103B60001BFF0020FDF72CFE10E00B4B1B881946B5
:103B700078680AF073FEFEF7F9FA03461846FFF775
:103B80005FFD0020FDF778FE00E000BF0837BD466E
:103B900080BD00BF001000507A1400247C14002463
:103BA00080B582B000AF78600B467B807B88022BAB
:103BB00010D0022B13DC002B02D0012B05D00EE01D
:103BC00002F08CFB03461B680AE002F087FB034609
:103BD0005B6805E002F082FB03469B6800E000237F
:103BE00018460837BD4680BD80B400AF024B18466A
:103BF000BD465DF8047B70479055020880B400AF65
:103C000002231846BD465DF8047B704780B483B03C
:103C100000AF7860044A7B681A607B6818460C37EE
:103C2000BD465DF8047B70476058020880B582B0DD
:103C300000AF78607868FFF7E9FF102178681FF01F
:103C400012FB7B6818460837BD4680BD90B587B02B
:103C500000AF78600B467B807B88002B01D100236E
:103C600010E000233B610023FB737B681B68083373
:103C70001C6807F10F0307F1100279887868A047E4
:103C800078617B6918461C37BD4690BD80B483B00F
:103C900000AF78607B685B8918460C37BD465DF8DD
:103CA000047B704780B483B000AF78607B689B89E9
:103CB00018460C37BD465DF8047B704780B483B06E
:103CC00000AF78607B689B8818460C37BD465DF86E
:103CD000047B704780B483B000AF78607B689A88BB
:103CE0007B689B799BB213449BB218460C37BD4648
:103CF0005DF8047B704780B483B000AF78607B6868
:103D0000DB79C3F30603DBB218460C37BD465DF81A
:103D1000047B704780B483B000AF78607B68DB7948
:103D2000C3F3C013DBB218460C37BD465DF8047B05
:103D30007047000080B582B000AF7860054A7B68AC
:103D40001A607B681846FFF761FF7B6818460837E2
:103D5000BD4680BD005F020880B582B000AF7860CC
:103D60007868FFF7E7FF182178681FF07CFA7B6816
:103D700018460837BD4680BD80B582B000AF786078
:103D8000054A7B681A607B681846FFF7D3FF7B689B
:103D900018460837BD4680BD0856020880B582B077
:103DA00000AF78607868FFF7E7FF282178681FF098
:103DB0005AFA7B6818460837BD4680BD80B483B088
:103DC00000AF786039603B6818460C37BD465DF837
:103DD000047B704780B400AF0B4B1B6893F87630C0
:103DE000002B08D0084B1B68DB6C002B03D0064B64
:103DF0001B68DB6C02E0044B1B689B681846BD46E1
:103E00005DF8047B704700BF74AE002480B483B0BB
:103E100000AF7860074A7B681A607B6800225A60AE
:103E20007B6800221A727B6818460C37BD465DF825
:103E3000047B7047E455020880B483B000AF78601B
:103E4000044A7B681A607B6818460C37BD465DF8EB
:103E5000047B7047E455020880B582B000AF7860FB
:103E60007868FFF7E9FF0C2178681FF0FCF97B68A0
:103E700018460837BD4680BD80B483B000AF786077
:103E800000BF0C37BD465DF8047B704780B483B03B
:103E900000AF786000BF0C37BD465DF8047B70470B
:103EA00080B483B000AF786000BF0C37BD465DF8CA
:103EB000047B704780B582B000AF786011F068F87D
:103EC0000346184611F00AFC00BF0837BD4680BD06
:103ED00080B483B000AF786039607B683A685A601C
:103EE00000BF0C37BD465DF8047B704780B582B0DB
:103EF00000AF78607B68184611F06CF8094A7B685F
:103F00001A607B680022C3F838217B680022C3F85E
:103F10003C217B68044A13607B6818460837BD461D
:103F200080BD00BFFC530208C0AE002480B483B043
:103F300000AF786039607B683A681A6000BF0C3760
:103F4000BD465DF8047B704780B483B000AF7860F5
:103F50007B6801221A7200BF0C37BD465DF8047BF6
:103F6000704780B483B000AF786039607B683A688E
:103F70005A6000BF0C37BD465DF8047B70470000F7
:103F800080B584B000AFF860B9607A60FB6818460D
:103F9000FFF7ACFF124AFB681A60FB6803F5A073D9
:103FA000184600F029F9FB687A68C3F85021FB68CD
:103FB000BA68C3F85421FEF7D9F803461A680832E4
:103FC0001268002118469047FFF704FF0346184681
:103FD00018F045FAFB6818461037BD4680BD00BF93
:103FE0009853020880B483B000AF786039607B6872
:103FF00018460C37BD465DF8047B704780B582B02B
:1040000000AF786039607B683A6811461846FFF760
:10401000E9FF3B685A687B685A607B683A680833F6
:10402000083292E8030083E803007B6818460837EB
:10403000BD4680BD90B589B000AF78607B6803F560
:10404000A074104BBB610023FB6107F1080007F16E
:1040500018030CCB796800F0EBF807F10803194658
:104060002046FFF7CBFF07F108031846FFF7C0F91A
:104070007B6803F5A0727B68C3F83C2100BF24373E
:10408000BD4690BD8940000880B584B002AF78601D
:104090007B6803F59C717B68D3F850311A467B68C6
:1040A000D3F854310093044B044800F0F3F800BFF8
:1040B0000837BD4680BD00BFB4AE0024B0AE0024BA
:1040C00090B589B000AF78607B6803F5A074104BA1
:1040D000BB610023FB6107F1080007F118030CCB5B
:1040E000796800F0A5F807F1080319462046FFF7A4
:1040F00085FF07F108031846FFF77AF97B6803F597
:10410000A0727B68C3F83C2100BF2437BD4690BD38
:104110001541000880B584B002AF78607B6803F574
:104120009C717B68D3F850311A467B68D3F85431C0
:104130000093044B044800F0C7F900BF0837BD46A0
:1041400080BD00BFB4AE0024B0AE002490B589B0ED
:1041500000AF78607B6803F5A074104BBB6100234F
:10416000FB6107F1080007F118030CCB796800F038
:104170005FF807F1080319462046FFF73FFF07F1F4
:1041800008031846FFF734F97B6803F5A0727B68D3
:10419000C3F83C2100BF2437BD4690BDA1410008B3
:1041A00080B584B002AF78607B6803F59C717B6852
:1041B000D3F850311A467B68D3F854310093044B3E
:1041C000044800F09BFA00BF0837BD4680BD00BF21
:1041D000B4AE0024B0AE002480B483B000AF7860E9
:1041E000044A7B681A607B6818460C37BD465DF848
:1041F000047B70474854020880B582B000AF7860F5
:104200007B681846FFF7E8FF084A7B681A607B68FE
:1042100000225A607B6800229A607B680022DA6084
:104220007B6818460837BD4680BD00BFE4530208CE
:1042300080B584B000AFF860B960394681E80C0001
:10424000FB681846FFF7C8FF084AFB681A60FB685E
:10425000BA685A60FB6808333A4692E8030083E87C
:104260000300FB6818461037BD4680BDE4530208C2
:1042700080B582B000AF78607B681846FFF7C6FD56
:10428000034A7B681A607B6818460837BD4680BDC4
:10429000C055020890B58FB000AFF860B9607A6081
:1042A0003B607B689A687B689B681B6820331B684F
:1042B000104698470346AF2B05D87E4B7E4AA32174
:1042C0007E481EF0FFFF00BF7B685A687B685B6812
:1042D0001B6820331B681046984703460F2B05D8F0
:1042E000774B754AA42175481EF0ECFF00BF7B6830
:1042F000DA687B68DB681B6820331B6810469847C8
:1043000003460B2B05D86F4B6B4AA5216B481EF05B
:10431000D9FF00BFFB68BB62BB687B623B683B6246
:1043200010F036FE0346184610F038FE3B6A1B6854
:10433000002B08D03B6A1A683B6A1B681B680C3369
:104340001B68104698473B6A1B68002B07D03B6AE6
:104350001A683B6A1B681B681B6810469847BB6A53
:104360001B68002B08D0BB6A1A68BB6A1B681B68F5
:1043700014331B68104698477B6A1B68002B08D0D3
:104380007B6A1A687B6A1B681B6804331B681046CB
:104390009847BB6A1B68002B07D0BB6A1A68BB6AC8
:1043A0001B681B681B68104698477B6A1B68002BBC
:1043B00008D07B6A1A687B6A1B681B6808331B6815
:1043C0001046984700BF7B68DB680021184600F064
:1043D000AFFA034619460C20FFF7F0FC04462046CE
:1043E000FFF746FF7C637B689B680021184600F05E
:1043F000B2FA03461946B020FFF7E0FC0446204617
:1044000002F0D0F83C637B685B680021184600F03E
:10441000B5FA034619461020FFF7D0FC0446396B65
:10442000204602F069F8FC623B687A6B1A60BB6850
:10443000FA6A1A60FB683A6B1A60FB6A002B02D0BA
:10444000FB6A043300E000231946B86CFFF76EFDE9
:10445000FB6A0433B96C1846FFF783FD3B6BF96ABE
:10446000184600F09EFA3B6BFB61FB6ABB617B6BFD
:104470007B61FB691B680C331B68F8699847BB6953
:104480001B681B68B86998477969F86912F05EF98A
:104490007B691B6810331B68786998477B691B68C8
:1044A00014331B687869984700BFFB6A18463C378D
:1044B000BD4690BD7448020804490208084A020833
:1044C000604A0208044B020890B58FB000AFF86054
:1044D000B9607A603B607B689A687B689B681B6800
:1044E00020331B68104698470346AF2B05D87E4BF8
:1044F0007E4AA3217E481EF0E5FE00BF7B685A6815
:104500007B685B681B6820331B681046984703462E
:104510000F2B05D8774B754AA42175481EF0D2FEA3
:1045200000BF7B68DA687B68DB681B6820331B6828
:104530001046984703460B2B05D86F4B6B4AA521B5
:104540006B481EF0BFFE00BFFB68BB62BB687B62AE
:104550003B683B6210F01CFD0346184610F01EFD40
:104560003B6A1B68002B08D03B6A1A683B6A1B68D1
:104570001B680C331B68104698473B6A1B68002B6E
:1045800007D03B6A1A683B6A1B681B681B681046A9
:104590009847BB6A1B68002B08D0BB6A1A68BB6AC5
:1045A0001B681B6814331B68104698477B6A1B689E
:1045B000002B08D07B6A1A687B6A1B681B6804336F
:1045C0001B6810469847BB6A1B68002B07D0BB6A64
:1045D0001A68BB6A1B681B681B68104698477B6A91
:1045E0001B68002B08D07B6A1A687B6A1B681B68F3
:1045F00008331B681046984700BF7B68DB680021C2
:10460000184600F095F9034619460C20FFF7D6FB33
:1046100004462046FFF72CFE7C637B689B680021E4
:10462000184600F0CCF903461946B020FFF7C6FB48
:104630000446204602F06AF83C637B685B68002110
:10464000184600F0CFF9034619461020FFF7B6FBD5
:104650000446396B204602F003F8FC623B687A6B33
:104660001A60BB68FA6A1A60FB683A6B1A60FB6AE8
:10467000002B02D0FB6A043300E000231946B86C1B
:10468000FFF754FCFB6A0433B96C1846FFF769FC6A
:104690003B6BF96A184600F0B8F93B6BFB61FB6AAB
:1046A000BB617B6B7B61FB691B680C331B68F86922
:1046B0009847BB691B681B68B86998477969F869AE
:1046C00012F044F87B691B6810331B6878699847BF
:1046D0007B691B6814331B687869984700BFFB6AC5
:1046E00018463C37BD4690BD74480208A84B0208E6
:1046F000084A0208604A0208044B020890B58FB0CD
:1047000000AFF860B9607A603B607B689A687B684C
:104710009B681B6820331B68104698470346AF2BE5
:1047200005D87E4B7E4AA3217E481EF0CBFD00BFFC
:104730007B685A687B685B681B6820331B6810467F
:10474000984703460F2B05D8774B754AA421754827
:104750001EF0B8FD00BF7B68DA687B68DB681B6809
:1047600020331B681046984703460B2B05D86F4B28
:104770006B4AA5216B481EF0A5FD00BFFB68BB621C
:10478000BB687B623B683B6210F002FC0346184644
:1047900010F004FC3B6A1B68002B08D03B6A1A68C7
:1047A0003B6A1B681B680C331B68104698473B6AC2
:1047B0001B68002B07D03B6A1A683B6A1B681B68A2
:1047C0001B6810469847BB6A1B68002B08D0BB6A61
:1047D0001A68BB6A1B681B6814331B68104698472D
:1047E0007B6A1B68002B08D07B6A1A687B6A1B688F
:1047F0001B6804331B6810469847BB6A1B68002B74
:1048000007D0BB6A1A68BB6A1B681B681B68104626
:1048100098477B6A1B68002B08D07B6A1A687B6A02
:104820001B681B6808331B681046984700BF7B68ED
:10483000DB680021184600F07BF8034619460C207F
:10484000FFF7BCFA04462046FFF712FD7C637B6845
:104850009B680021184600F0E6F803461946B02090
:10486000FFF7ACFA0446204602F004F83C637B688C
:104870005B680021184600F0E9F80346194610204D
:10488000FFF79CFA0446396B204601F09DFFFC625D
:104890003B687A6B1A60BB68FA6A1A60FB683A6B0D
:1048A0001A60FB6A002B02D0FB6A043300E000238D
:1048B0001946B86CFFF73AFBFB6A0433B96C18462B
:1048C000FFF74FFB3B6BF96A184600F0D2F83B6BE1
:1048D000FB61FB6ABB617B6B7B61FB691B680C3313
:1048E0001B68F8699847BB691B681B68B8699847DB
:1048F0007969F86911F02AFF7B691B6810331B681E
:10490000786998477B691B6814331B6878699847F6
:1049100000BFFB6A18463C37BD4690BD744802088C
:10492000AC4C0208084A0208604A0208044B02081C
:1049300080B582B000AF78600B467B807B681B68D7
:1049400024331B687A8811467868984703461846CE
:104950000837BD4680BD80B582B000AF78600B4699
:104960007B807B681B6824331B687A8811467868D3
:104970009847034618460837BD4680BD80B582B0CB
:1049800000AF78600B467B807B681B6824331B6814
:104990007A88114678689847034618460837BD4616
:1049A00080BD80B483B000AF786039607B683A68BE
:1049B000DA6300BF0C37BD465DF8047B704780B5F5
:1049C00082B000AF78600B467B807B681B68243325
:1049D0001B687A8811467868984703461846083756
:1049E000BD4680BD80B582B000AF78600B467B804D
:1049F0007B681B6824331B687A881146786898475F
:104A0000034618460837BD4680BD80B483B000AF6A
:104A1000786039607B683A68DA6300BF0C37BD465E
:104A20005DF8047B704780B582B000AF78600B46BC
:104A30007B807B681B6824331B687A881146786802
:104A40009847034618460837BD4680BD80B582B0FA
:104A500000AF78600B467B807B681B6824331B6843
:104A60007A88114678689847034618460837BD4645
:104A700080BD80B483B000AF786039607B683A68ED
:104A8000DA6300BF0C37BD465DF8047B7047000059
:104A900080B582B000AF7860054A7B681A607B6899
:104AA0001846FFF7C9F97B6818460837BD4680BD30
:104AB000C055020880B582B000AF78607868FFF713
:104AC000E7FF0C2178681EF0CEFB7B68184608379C
:104AD000BD4680BD80B483B000AF78607B681B6A40
:104AE00018460C37BD465DF8047B704780B483B030
:104AF00000AF78607B685B6A18460C37BD465DF88E
:104B0000047B704780B58CB008AFF860B96011467F
:104B10001A460B46FB801346BB80F868B988FA88B2
:104B20003B8F0693BB8E059397F82830049397F834
:104B30002430039397F8203002933B7F01933B7E10
:104B400000930B46B96811F069FA0A4AFB681A60CB
:104B5000FB68FA6A9A61FB683A6BDA61FB68FA6B88
:104B60001A62FB683A6C5A62FB6818461037BD46F9
:104B700080BD00BF0856020880B485B000AF7860E1
:104B800039607B689B69FB603B689B88DB0A9BB252
:104B90009B00FA6813441A683B681B681344184664
:104BA0001437BD465DF8047B704780B489B000AF10
:104BB000F8600B467A607B817B68002B03D07B68B2
:104BC0001B7B002B01D1002330E0FB68DA697B6896
:104BD0007B617B695B7B1B021BB203F4E06319B250
:104BE0007B69DB7A1BB20B431BB29BB29B00134465
:104BF000FB617B681B7B7B837B8B002B15D0FB6968
:104C00001B887A899A4203D1FB6993F902300DE03F
:104C1000FB691B887A899A4206D37B8B013B7B8395
:104C2000FB690433FB61E7E700BF00231846243724
:104C3000BD465DF8047B704780B483B000AF7860F8
:104C400039607B683A681A607B6818460C37BD4645
:104C50005DF8047B704780B483B000AF78600B468A
:104C60007B807B687A881A807B6818460C37BD4643
:104C70005DF8047B7047000080B582B000AF7860BB
:104C8000144A7B681A607B6804331846FDF7CEFD32
:104C90007B680C331846FDF7C9FD7B6800225A611A
:104CA0007B6800229A617B680022DA617B680022BF
:104CB0001A847B6800225A847B68002283F82420AF
:104CC0007B68012283F825207B6818460837BD469B
:104CD00080BD00BF985E020880B483B000AF7860EA
:104CE000044A7B681A607B6818460C37BD465DF83D
:104CF000047B7047985E020880B582B000AF786090
:104D00007868FFF7E9FF282178681EF0ACFA7B6825
:104D100018460837BD4680BD80B582B000AF7860C8
:104D20007B6893F82530002B05D07B681B68143313
:104D30001B687868984700BF0837BD4680BD80B4BF
:104D400083B000AF7860002318460C37BD465DF88D
:104D5000047B704780B584B000AFF8600846114608
:104D60001A4603467B810B463B811346FB80B7F90D
:104D70000820B7F90A301946F86800F02AF8B7F9A0
:104D80001820B7F906301946F86800F07EF800BF21
:104D90001037BD4680BD80B483B000AF78600B464D
:104DA0007B807B687A889A8000BF0C37BD465DF8AF
:104DB000047B704780B483B000AF78600B467B8083
:104DC0007B687A88DA8000BF0C37BD465DF8047BCB
:104DD000704780B582B000AF78600B467B80134689
:104DE0003B807B681B6830331B68B7F90220114693
:104DF000786898477B681B6834331B68B7F90020D4
:104E000011467868984700BF0837BD4680BD80B41A
:104E100083B000AF78600B467B807B687A881A810C
:104E200000BF0C37BD465DF8047B704780B483B08B
:104E300000AF78600B467B807B687A885A8100BF20
:104E40000C37BD465DF8047B704780B483B000AF7B
:104E5000786000BF0C37BD465DF8047B704780B4B6
:104E600083B000AF7860396000BF0C37BD465DF895
:104E7000047B704780B483B000AF7860396000BFB6
:104E80000C37BD465DF8047B704780B582B000AF3B
:104E900078600B467B8013463B807B681B68383309
:104EA0001B68B7F902201146786898477B681B6831
:104EB0003C331B68B7F9002011467868984700BF5B
:104EC0000837BD4680BD80B483B000AF78603960DC
:104ED00000BF0C37BD465DF8047B704780B483B0DB
:104EE00000AF786000BF0C37BD465DF8047B7047AB
:104EF00080B483B000AF78600B46FB707B68FA78B3
:104F000083F8242000BF0C37BD465DF8047B704752
:104F100080B483B000AF78607B6893F82530184682
:104F20000C37BD465DF8047B704780B483B000AF9A
:104F300078607B6893F8243018460C37BD465DF8DE
:104F4000047B704780B582B000AF78600B467B80F1
:104F500013463B807B681B6854331B6879887A68EA
:104F6000B2F9042092B28A1A92B210B239887A68E1
:104F7000B2F9062092B28A1A92B212B20146786849
:104F8000984700BF0837BD4680BD80B483B000AFEE
:104F900078607B684FF6FF729A817B684FF6FF72EC
:104FA0001A847B684FF6FF725A8400BF0C37BD46E7
:104FB0005DF8047B704780B584B000AFF860B960DD
:104FC0007A60F868FFF7E1FF7B681A68FB68DA61CE
:104FD0007B68FA681A6000BF1037BD4680BD0000CC
:104FE00080B582B000AF7860064A7B681A607B6843
:104FF0000433184600F0F0FA7B6818460837BD46BF
:1050000080BD00BF945F020880B582B000AF7860B9
:105010007868FFF7E5FF3C2178681EF024F97B688B
:1050200018460837BD4680BD80B483B000AF7860B5
:1050300000BF0C37BD465DF8047B704780B483B079
:1050400000AF786000BF0C37BD465DF8047B704749
:1050500080B483B000AF786000BF0C37BD465DF808
:10506000047B704780B483B000AF786000BF0C371A
:10507000BD465DF8047B704780B483B000AF7860B4
:105080000B46FB7000BF0C37BD465DF8047B7047D4
:1050900080B582B000AF786039607B6804333968CE
:1050A00018460DF047FC00BF0837BD4680BD80B5EF
:1050B00084B000AFF8607B600B467B8113463B8178
:1050C000FB681846FFF724FF0346002B08D0FB6857
:1050D0001846FFF72AFF0346002B01D0012300E00A
:1050E0000023002B02D0FA687B681A6000BF1037DB
:1050F000BD4680BD80B582B000AF78607B68184641
:10510000FFF7BAFD034A7B681A607B6818460837C8
:10511000BD4680BDF856020880B582B000AF786009
:10512000054A7B681A607B681846FFF7D5FD7B68E7
:1051300018460837BD4680BDF856020880B582B0D3
:1051400000AF78607868FFF7E7FF282178681EF0E5
:105150008AF87B6818460837BD4680BD80B582B0A6
:1051600000AF78607B68184626231A4600211EF09F
:1051700035F97B681846FFF7BDFF094A7B681A605E
:105180007B68FF2283F826207B682833002118469D
:10519000FFF752FD7B6818460837BD4680BD00BF4B
:1051A000185D020880B483B000AF786039607B6816
:1051B0003A689A6200BF0C37BD465DF8047B7047C1
:1051C00080B582B000AF78607B68184626231A4607
:1051D00000211EF003F97B681846FFF78BFF0A4A8F
:1051E0007B681A607B6800229A627B68002283F8E1
:1051F0002C207B6801211846FFF77AFE7B68184651
:105200000837BD4680BD00BFA85C020880B483B0EB
:1052100000AF786039607B683A689A6200BF0C37EB
:10522000BD465DF8047B704780B582B000AF786002
:10523000054A7B681A607B681846FFF76DFF7B683C
:1052400018460837BD4680BDA85C020880B582B00C
:1052500000AF78607868FFF7E7FF302178681EF0CC
:1052600002F87B6818460837BD4680BD80B582B01D
:1052700000AF78607B681846FFF7A2FF0C4A7B6896
:105280001A607B682E334FF6FF711846FFF7E3FC78
:105290007B6830334FF6FF711846FFF7DCFC7B6804
:1052A000FF2283F832207B6818460837BD4680BD50
:1052B000805D020880B582B000AF7860054A7B68E7
:1052C0001A607B681846FFF78BFE7B681846083724
:1052D000BD4680BDAC56020880B582B000AF786094
:1052E0007868FFF7E7FF402178681DF0BCFF7B6816
:1052F00018460837BD4680BD80B582B000AF7860E3
:105300000D4A7B681A607B68A033184600F042F9AA
:105310007B686C33184600F0A3F97B68403318466D
:1053200000F07CF97B681846FFF7C4FF7B681846DD
:105330000837BD4680BD00BF6056020880B582B008
:1053400000AF78607868FFF7D7FFB02178681DF06C
:105350008AFF7B6818460837BD4680BD80B582B09D
:1053600000AF78600FF014FE034618460837BD46BC
:1053700080BD000090B58BB002AF78607B681846A6
:1053800000F0A2F83E4A7B681A607B6840331846FA
:10539000FFF7E4FE7B686C331846FFF767FF7B6816
:1053A00003F1A000374BBB600023FB6007F108034B
:1053B0000CCB796800F0AEF87B6803F140004FF445
:1053C000887300934FF4F07300220021FFF7C2FCB2
:1053D0007B6803F140040023FB770023BB770023A5
:1053E0007B77FB7F1B041A46BB7F1B021A437B7F24
:1053F000134343F07F4207F1180311461846FFF7A5
:105400001BFCBB6919462046FFF7CCFE7B686C335A
:10541000002200211846FFF7DCFC7B6803F16C04D6
:1054200007F1100300211846FFF715FC07F11403DC
:1054300001211846FFF70FFC07F1140207F11003D2
:10544000194620460EF05AFC7B6803F16C027B681B
:10545000A03319461046FFF7D9FE7A687B684033BF
:1054600019461046FFF714FE7A687B686C331946BC
:105470001046FFF70DFE7B6818462437BD4690BDE9
:10548000605602089D54000880B483B000AF786075
:1054900000BF0C37BD465DF8047B704780B582B015
:1054A00000AF786039607B686C333A689A4206D105
:1054B0007868FFF753FF03461846FEF701FE00BF6A
:1054C0000837BD4680BD000080B582B000AF78606F
:1054D0007B68184610F08EFF054A7B681A607B686F
:1054E0000022DA637B6818460837BD4680BD00BFDE
:1054F000AC56020880B483B000AF7860044A7B6881
:105500001A607B6818460C37BD465DF8047B70470F
:10551000E056020880B584B000AFF860B960394643
:1055200081E80C00FB681846FFF7E4FF084AFB68B7
:105530001A60FB68BA685A60FB6808333A4692E81A
:10554000030083E80300FB6818461037BD4680BDA2
:105550009456020880B483B000AF7860044A7B6838
:105560001A607B6818460C37BD465DF8047B7047AF
:10557000E056020880B582B000AF78607868FFF727
:10558000E9FF042178681DF06EFE7B681846083735
:10559000BD4680BD80B582B000AF7860054A7B68AB
:1055A0001A607B681846FFF7D5FF7B6818460837F6
:1055B000BD4680BD9456020880B582B000AF7860C9
:1055C0007868FFF7E7FF102178681DF04CFE7B68D4
:1055D00018460837BD4680BD80B582B000AF786000
:1055E000054A7B681A607B681846FFF775FB7B6885
:1055F00018460837BD4680BDC05A020880B582B043
:1056000000AF78607868FFF7E7FF2C2178681DF01D
:105610002AFE7B6818460837BD4680BD80B582B03B
:1056200000AF7860054A7B681A607B681846FFF710
:1056300073FD7B6818460837BD4680BD185D0208BB
:1056400080B582B000AF78607868FFF7E7FF2C2163
:1056500078681DF008FE7B6818460837BD4680BD97
:1056600080B582B000AF7860054A7B681A607B68BD
:105670001846FFF7D9FD7B6818460837BD4680BD40
:10568000805D020880B582B000AF78607868FFF76F
:10569000E7FF342178681DF0E6FD7B68184608377F
:1056A000BD4680BD80B582B000AF786039607B6850
:1056B0005B687A68D268521098187B68DB6803F0E0
:1056C0000103002B02D17B689B680AE07B685B6862
:1056D0007A68D268521013441B687A68926813443F
:1056E0001B683968984700BF0837BD4680BD80B445
:1056F00083B000AF78607B685B68002B10D07B685C
:105700009B68002B07D17B68DB6803F00103002B4B
:1057100001D1012300E00023012B01D0012300E08F
:10572000002318460C37BD465DF8047B7047000027
:1057300080B582B000AF7860054A7B681A607B68EC
:105740001846FFF74DFC7B6818460837BD4680BDFC
:10575000AC57020880B582B000AF78607868FFF778
:10576000E7FF402178681DF07EFD7B68184608370A
:10577000BD4680BD80B582B000AF78600D4A7B68C1
:105780001A607B68A033184600F012F97B686C330E
:105790001846FFF765FF7B6840331846FFF73EFF6A
:1057A0007B681846FFF7C4FF7B6818460837BD467C
:1057B00080BD00BF6057020880B582B000AF78603E
:1057C0007868FFF7D7FFB02178681DF04CFD7B6843
:1057D00018460837BD4680BD80B582B000AF7860FE
:1057E0000FF0D6FB034618460837BD4680BD0000C3
:1057F00090B58BB002AF78607B68184600F0A2F8D5
:105800003E4A7B681A607B6840331846FFF7A6FC67
:105810007B686C331846FFF729FD7B6803F1A00015
:10582000374BBB600023FB6007F108030CCB7968A2
:1058300000F09EF87B6803F140004FF488730093FA
:105840004FF4F07300220021FFF784FA7B6803F124
:1058500040040023FB770023BB7700237B77FB7F8B
:105860001B041A46BB7F1B021A437B7F134343F082
:105870007F4207F1180311461846FFF7DDF9BB69AF
:1058800019462046FFF78EFC7B686C336A229B2109
:105890001846FFF79EFA7B6803F16C0407F11003CA
:1058A00000211846FFF7D7F907F114030121184624
:1058B000FFF7D1F907F1140207F11003194620464A
:1058C0000EF01CFA7B6803F16C027B68A03319466A
:1058D0001046FFF79BFC7A687B68403319461046F8
:1058E000FFF7D6FB7A687B686C3319461046FFF7E2
:1058F000CFFB7B6818462437BD4690BD6057020831
:105900001959000880B483B000AF786000BF0C372D
:10591000BD465DF8047B704780B582B000AF78600B
:1059200039607B686C333A689A4206D17868FFF731
:1059300053FF03461846FEF709FC00BF0837BD4673
:1059400080BD000080B582B000AF78607B681846EB
:1059500010F050FD054A7B681A607B680022DA630C
:105960007B6818460837BD4680BD00BFAC570208AB
:1059700080B584B000AFF860B960394681E80C00AA
:10598000FB681846FFF7B6FD084AFB681A60FB681B
:10599000BA685A60FB6808333A4692E8030083E825
:1059A0000300FB6818461037BD4680BD94570208B7
:1059B00080B582B000AF7860054A7B681A607B686A
:1059C0001846FFF7C7FD7B6818460837BD4680BDFF
:1059D0009457020880B582B000AF78607868FFF70E
:1059E000E7FF102178681DF03EFC7B6818460837F9
:1059F000BD4680BD80B582B000AF786039607B68FD
:105A00005B687A68D268521098187B68DB6803F08C
:105A10000103002B02D17B689B680AE07B685B680E
:105A20007A68D268521013441B687A6892681344EB
:105A30001B683968984700BF0837BD4680BD80B4F1
:105A400083B000AF78607B685B68002B10D07B6808
:105A50009B68002B07D17B68DB6803F00103002BF8
:105A600001D1012300E00023012B01D0012300E03C
:105A7000002318460C37BD465DF8047B70470000D4
:105A800080B582B000AF7860054A7B681A607B6899
:105A90001846FFF7A5FA7B6818460837BD4680BD53
:105AA0002C58020880B582B000AF78607868FFF7A4
:105AB000E7FF402178681DF0D6FB7B681846083761
:105AC000BD4680BD80B582B000AF78600D4A7B686E
:105AD0001A607B68A033184600F014F97B686C33B9
